{
    "_format": "hh-sol-artifact-1",
    "contractName": "AcceptedNFT",
    "sourceName": "contracts/AcceptedNFT.sol",
    "abi": [
        {
            "inputs": [],
            "stateMutability": "payable",
            "type": "constructor"
        },
        {
            "anonymous": false,
            "inputs": [
                {
                    "indexed": true,
                    "internalType": "address",
                    "name": "owner",
                    "type": "address"
                },
                {
                    "indexed": true,
                    "internalType": "address",
                    "name": "approved",
                    "type": "address"
                },
                {
                    "indexed": true,
                    "internalType": "uint256",
                    "name": "tokenId",
                    "type": "uint256"
                }
            ],
            "name": "Approval",
            "type": "event"
        },
        {
            "anonymous": false,
            "inputs": [
                {
                    "indexed": true,
                    "internalType": "address",
                    "name": "owner",
                    "type": "address"
                },
                {
                    "indexed": true,
                    "internalType": "address",
                    "name": "operator",
                    "type": "address"
                },
                {
                    "indexed": false,
                    "internalType": "bool",
                    "name": "approved",
                    "type": "bool"
                }
            ],
            "name": "ApprovalForAll",
            "type": "event"
        },
        {
            "anonymous": false,
            "inputs": [
                {
                    "indexed": true,
                    "internalType": "address",
                    "name": "previousOwner",
                    "type": "address"
                },
                {
                    "indexed": true,
                    "internalType": "address",
                    "name": "newOwner",
                    "type": "address"
                }
            ],
            "name": "OwnershipTransferred",
            "type": "event"
        },
        {
            "anonymous": false,
            "inputs": [
                {
                    "indexed": true,
                    "internalType": "address",
                    "name": "from",
                    "type": "address"
                },
                {
                    "indexed": true,
                    "internalType": "address",
                    "name": "to",
                    "type": "address"
                },
                {
                    "indexed": true,
                    "internalType": "uint256",
                    "name": "tokenId",
                    "type": "uint256"
                }
            ],
            "name": "Transfer",
            "type": "event"
        },
        {
            "inputs": [
                {
                    "internalType": "uint256",
                    "name": "requestedCount_",
                    "type": "uint256"
                }
            ],
            "name": "airDropMint",
            "outputs": [],
            "stateMutability": "nonpayable",
            "type": "function"
        },
        {
            "inputs": [
                {
                    "internalType": "address",
                    "name": "to",
                    "type": "address"
                },
                {
                    "internalType": "uint256",
                    "name": "tokenId",
                    "type": "uint256"
                }
            ],
            "name": "approve",
            "outputs": [],
            "stateMutability": "nonpayable",
            "type": "function"
        },
        {
            "inputs": [
                {
                    "internalType": "address",
                    "name": "owner",
                    "type": "address"
                }
            ],
            "name": "balanceOf",
            "outputs": [
                {
                    "internalType": "uint256",
                    "name": "",
                    "type": "uint256"
                }
            ],
            "stateMutability": "view",
            "type": "function"
        },
        {
            "inputs": [
                {
                    "internalType": "uint256",
                    "name": "tokenId",
                    "type": "uint256"
                }
            ],
            "name": "getApproved",
            "outputs": [
                {
                    "internalType": "address",
                    "name": "",
                    "type": "address"
                }
            ],
            "stateMutability": "view",
            "type": "function"
        },
        {
            "inputs": [
                {
                    "internalType": "address",
                    "name": "owner",
                    "type": "address"
                },
                {
                    "internalType": "address",
                    "name": "operator",
                    "type": "address"
                }
            ],
            "name": "isApprovedForAll",
            "outputs": [
                {
                    "internalType": "bool",
                    "name": "",
                    "type": "bool"
                }
            ],
            "stateMutability": "view",
            "type": "function"
        },
        {
            "inputs": [],
            "name": "isPublicMintEnabled",
            "outputs": [
                {
                    "internalType": "bool",
                    "name": "",
                    "type": "bool"
                }
            ],
            "stateMutability": "view",
            "type": "function"
        },
        {
            "inputs": [],
            "name": "maxPerWallet",
            "outputs": [
                {
                    "internalType": "uint256",
                    "name": "",
                    "type": "uint256"
                }
            ],
            "stateMutability": "view",
            "type": "function"
        },
        {
            "inputs": [],
            "name": "maxSupply",
            "outputs": [
                {
                    "internalType": "uint256",
                    "name": "",
                    "type": "uint256"
                }
            ],
            "stateMutability": "view",
            "type": "function"
        },
        {
            "inputs": [
                {
                    "internalType": "uint256",
                    "name": "quantity_",
                    "type": "uint256"
                }
            ],
            "name": "mint",
            "outputs": [],
            "stateMutability": "payable",
            "type": "function"
        },
        {
            "inputs": [],
            "name": "mintPrice",
            "outputs": [
                {
                    "internalType": "uint256",
                    "name": "",
                    "type": "uint256"
                }
            ],
            "stateMutability": "view",
            "type": "function"
        },
        {
            "inputs": [],
            "name": "name",
            "outputs": [
                {
                    "internalType": "string",
                    "name": "",
                    "type": "string"
                }
            ],
            "stateMutability": "view",
            "type": "function"
        },
        {
            "inputs": [],
            "name": "owner",
            "outputs": [
                {
                    "internalType": "address",
                    "name": "",
                    "type": "address"
                }
            ],
            "stateMutability": "view",
            "type": "function"
        },
        {
            "inputs": [
                {
                    "internalType": "uint256",
                    "name": "tokenId",
                    "type": "uint256"
                }
            ],
            "name": "ownerOf",
            "outputs": [
                {
                    "internalType": "address",
                    "name": "",
                    "type": "address"
                }
            ],
            "stateMutability": "view",
            "type": "function"
        },
        {
            "inputs": [],
            "name": "renounceOwnership",
            "outputs": [],
            "stateMutability": "nonpayable",
            "type": "function"
        },
        {
            "inputs": [
                {
                    "internalType": "address",
                    "name": "from",
                    "type": "address"
                },
                {
                    "internalType": "address",
                    "name": "to",
                    "type": "address"
                },
                {
                    "internalType": "uint256",
                    "name": "tokenId",
                    "type": "uint256"
                }
            ],
            "name": "safeTransferFrom",
            "outputs": [],
            "stateMutability": "nonpayable",
            "type": "function"
        },
        {
            "inputs": [
                {
                    "internalType": "address",
                    "name": "from",
                    "type": "address"
                },
                {
                    "internalType": "address",
                    "name": "to",
                    "type": "address"
                },
                {
                    "internalType": "uint256",
                    "name": "tokenId",
                    "type": "uint256"
                },
                {
                    "internalType": "bytes",
                    "name": "data",
                    "type": "bytes"
                }
            ],
            "name": "safeTransferFrom",
            "outputs": [],
            "stateMutability": "nonpayable",
            "type": "function"
        },
        {
            "inputs": [
                {
                    "internalType": "address",
                    "name": "operator",
                    "type": "address"
                },
                {
                    "internalType": "bool",
                    "name": "approved",
                    "type": "bool"
                }
            ],
            "name": "setApprovalForAll",
            "outputs": [],
            "stateMutability": "nonpayable",
            "type": "function"
        },
        {
            "inputs": [
                {
                    "internalType": "string",
                    "name": "baseTokenUri_",
                    "type": "string"
                }
            ],
            "name": "setBaseTokenUri",
            "outputs": [],
            "stateMutability": "nonpayable",
            "type": "function"
        },
        {
            "inputs": [
                {
                    "internalType": "bool",
                    "name": "isPublicMintEnabled_",
                    "type": "bool"
                }
            ],
            "name": "setIsPublicMintEnabled",
            "outputs": [],
            "stateMutability": "nonpayable",
            "type": "function"
        },
        {
            "inputs": [
                {
                    "internalType": "bytes4",
                    "name": "interfaceId",
                    "type": "bytes4"
                }
            ],
            "name": "supportsInterface",
            "outputs": [
                {
                    "internalType": "bool",
                    "name": "",
                    "type": "bool"
                }
            ],
            "stateMutability": "view",
            "type": "function"
        },
        {
            "inputs": [],
            "name": "symbol",
            "outputs": [
                {
                    "internalType": "string",
                    "name": "",
                    "type": "string"
                }
            ],
            "stateMutability": "view",
            "type": "function"
        },
        {
            "inputs": [
                {
                    "internalType": "uint256",
                    "name": "tokenId_",
                    "type": "uint256"
                }
            ],
            "name": "tokenURI",
            "outputs": [
                {
                    "internalType": "string",
                    "name": "",
                    "type": "string"
                }
            ],
            "stateMutability": "view",
            "type": "function"
        },
        {
            "inputs": [],
            "name": "totalSupply",
            "outputs": [
                {
                    "internalType": "uint256",
                    "name": "",
                    "type": "uint256"
                }
            ],
            "stateMutability": "view",
            "type": "function"
        },
        {
            "inputs": [
                {
                    "internalType": "address",
                    "name": "from",
                    "type": "address"
                },
                {
                    "internalType": "address",
                    "name": "to",
                    "type": "address"
                },
                {
                    "internalType": "uint256",
                    "name": "tokenId",
                    "type": "uint256"
                }
            ],
            "name": "transferFrom",
            "outputs": [],
            "stateMutability": "nonpayable",
            "type": "function"
        },
        {
            "inputs": [
                {
                    "internalType": "address",
                    "name": "newOwner",
                    "type": "address"
                }
            ],
            "name": "transferOwnership",
            "outputs": [],
            "stateMutability": "nonpayable",
            "type": "function"
        },
        {
            "inputs": [
                {
                    "internalType": "address",
                    "name": "",
                    "type": "address"
                }
            ],
            "name": "walletMints",
            "outputs": [
                {
                    "internalType": "uint256",
                    "name": "",
                    "type": "uint256"
                }
            ],
            "stateMutability": "view",
            "type": "function"
        },
        {
            "inputs": [],
            "name": "withdraw",
            "outputs": [],
            "stateMutability": "nonpayable",
            "type": "function"
        },
        {
            "inputs": [],
            "name": "withdrawWallet",
            "outputs": [
                {
                    "internalType": "address payable",
                    "name": "",
                    "type": "address"
                }
            ],
            "stateMutability": "view",
            "type": "function"
        }
    ],
    "bytecode": "0x60806040526040518060400160405280600581526020017f5269636b730000000000000000000000000000000000000000000000000000008152506040518060400160405280600381526020017f526e4d0000000000000000000000000000000000000000000000000000000000815250816000908051906020019062000088929190620001bf565b508060019080519060200190620000a1929190620001bf565b505050620000c4620000b8620000f160201b60201c565b620000f960201b60201c565b66470de4df82000060078190555060006008819055506103e86009819055506003600a81905550620002d4565b600033905090565b6000600660009054906101000a900473ffffffffffffffffffffffffffffffffffffffff16905081600660006101000a81548173ffffffffffffffffffffffffffffffffffffffff021916908373ffffffffffffffffffffffffffffffffffffffff1602179055508173ffffffffffffffffffffffffffffffffffffffff168173ffffffffffffffffffffffffffffffffffffffff167f8be0079c531659141344cd1fd0a4f28419497f9722a3daafe3b4186f6b6457e060405160405180910390a35050565b828054620001cd906200026f565b90600052602060002090601f016020900481019282620001f157600085556200023d565b82601f106200020c57805160ff19168380011785556200023d565b828001600101855582156200023d579182015b828111156200023c5782518255916020019190600101906200021f565b5b5090506200024c919062000250565b5090565b5b808211156200026b57600081600090555060010162000251565b5090565b600060028204905060018216806200028857607f821691505b602082108114156200029f576200029e620002a5565b5b50919050565b7f4e487b7100000000000000000000000000000000000000000000000000000000600052602260045260246000fd5b61359180620002e46000396000f3fe6080604052600436106101b75760003560e01c806370a08231116100ec578063a22cb4651161008a578063d5abeb0111610064578063d5abeb01146105d7578063e985e9c514610602578063f0293fd31461063f578063f2fde38b1461067c576101b7565b8063a22cb46514610548578063b88d4fde14610571578063c87b56dd1461059a576101b7565b80638da5cb5b116100c65780638da5cb5b146104ad57806395652cfa146104d857806395d89b4114610501578063a0712d681461052c576101b7565b806370a082311461042e578063715018a61461046b57806385d178f414610482576101b7565b806323b872dd1161015957806342842e0e1161013357806342842e0e14610372578063453c23101461039b5780636352211e146103c65780636817c76c14610403576101b7565b806323b872dd146103095780633ccfd60b146103325780633fa3b4df14610349576101b7565b8063081812fc11610195578063081812fc1461024f578063095ea7b31461028c57806318160ddd146102b55780632373ac22146102e0576101b7565b80630116bc2d146101bc57806301ffc9a7146101e757806306fdde0314610224575b600080fd5b3480156101c857600080fd5b506101d16106a5565b6040516101de9190612957565b60405180910390f35b3480156101f357600080fd5b5061020e60048036038101906102099190612371565b6106b8565b60405161021b9190612957565b60405180910390f35b34801561023057600080fd5b5061023961079a565b6040516102469190612972565b60405180910390f35b34801561025b57600080fd5b5061027660048036038101906102719190612408565b61082c565b60405161028391906128d5565b60405180910390f35b34801561029857600080fd5b506102b360048036038101906102ae919061230c565b610872565b005b3480156102c157600080fd5b506102ca61098a565b6040516102d79190612c14565b60405180910390f35b3480156102ec57600080fd5b5061030760048036038101906103029190612348565b610990565b005b34801561031557600080fd5b50610330600480360381019061032b9190612206565b6109b5565b005b34801561033e57600080fd5b50610347610a15565b005b34801561035557600080fd5b50610370600480360381019061036b9190612408565b610aee565b005b34801561037e57600080fd5b5061039960048036038101906103949190612206565b610b89565b005b3480156103a757600080fd5b506103b0610ba9565b6040516103bd9190612c14565b60405180910390f35b3480156103d257600080fd5b506103ed60048036038101906103e89190612408565b610baf565b6040516103fa91906128d5565b60405180910390f35b34801561040f57600080fd5b50610418610c61565b6040516104259190612c14565b60405180910390f35b34801561043a57600080fd5b50610455600480360381019061045091906121a1565b610c67565b6040516104629190612c14565b60405180910390f35b34801561047757600080fd5b50610480610d1f565b005b34801561048e57600080fd5b50610497610d33565b6040516104a491906128f0565b60405180910390f35b3480156104b957600080fd5b506104c2610d59565b6040516104cf91906128d5565b60405180910390f35b3480156104e457600080fd5b506104ff60048036038101906104fa91906123c3565b610d83565b005b34801561050d57600080fd5b50610516610da1565b6040516105239190612972565b60405180910390f35b61054660048036038101906105419190612408565b610e33565b005b34801561055457600080fd5b5061056f600480360381019061056a91906122d0565b61100a565b005b34801561057d57600080fd5b5061059860048036038101906105939190612255565b611020565b005b3480156105a657600080fd5b506105c160048036038101906105bc9190612408565b611082565b6040516105ce9190612972565b60405180910390f35b3480156105e357600080fd5b506105ec6110fe565b6040516105f99190612c14565b60405180910390f35b34801561060e57600080fd5b50610629600480360381019061062491906121ca565b611104565b6040516106369190612957565b60405180910390f35b34801561064b57600080fd5b50610666600480360381019061066191906121a1565b611198565b6040516106739190612c14565b60405180910390f35b34801561068857600080fd5b506106a3600480360381019061069e91906121a1565b6111b0565b005b600b60009054906101000a900460ff1681565b60007f80ac58cd000000000000000000000000000000000000000000000000000000007bffffffffffffffffffffffffffffffffffffffffffffffffffffffff1916827bffffffffffffffffffffffffffffffffffffffffffffffffffffffff1916148061078357507f5b5e139f000000000000000000000000000000000000000000000000000000007bffffffffffffffffffffffffffffffffffffffffffffffffffffffff1916827bffffffffffffffffffffffffffffffffffffffffffffffffffffffff1916145b80610793575061079282611234565b5b9050919050565b6060600080546107a990612ec5565b80601f01602080910402602001604051908101604052809291908181526020018280546107d590612ec5565b80156108225780601f106107f757610100808354040283529160200191610822565b820191906000526020600020905b81548152906001019060200180831161080557829003601f168201915b5050505050905090565b60006108378261129e565b6004600083815260200190815260200160002060009054906101000a900473ffffffffffffffffffffffffffffffffffffffff169050919050565b600061087d82610baf565b90508073ffffffffffffffffffffffffffffffffffffffff168373ffffffffffffffffffffffffffffffffffffffff1614156108ee576040517f08c379a00000000000000000000000000000000000000000000000000000000081526004016108e590612b94565b60405180910390fd5b8073ffffffffffffffffffffffffffffffffffffffff1661090d6112e9565b73ffffffffffffffffffffffffffffffffffffffff16148061093c575061093b816109366112e9565b611104565b5b61097b576040517f08c379a000000000000000000000000000000000000000000000000000000000815260040161097290612af4565b60405180910390fd5b61098583836112f1565b505050565b60085481565b6109986113aa565b80600b60006101000a81548160ff02191690831515021790555050565b6109c66109c06112e9565b82611428565b610a05576040517f08c379a00000000000000000000000000000000000000000000000000000000081526004016109fc90612bb4565b60405180910390fd5b610a108383836114bd565b505050565b610a1d6113aa565b6000600d60009054906101000a900473ffffffffffffffffffffffffffffffffffffffff1673ffffffffffffffffffffffffffffffffffffffff1647604051610a65906128c0565b60006040518083038185875af1925050503d8060008114610aa2576040519150601f19603f3d011682016040523d82523d6000602084013e610aa7565b606091505b5050905080610aeb576040517f08c379a0000000000000000000000000000000000000000000000000000000008152600401610ae290612bf4565b60405180910390fd5b50565b60008111610b31576040517f08c379a0000000000000000000000000000000000000000000000000000000008152600401610b2890612ad4565b60405180910390fd5b60005b81811015610b855760006001600854610b4d9190612ce8565b905060086000815480929190610b6290612f28565b9190505550610b713382611724565b508080610b7d90612f28565b915050610b34565b5050565b610ba483838360405180602001604052806000815250611020565b505050565b600a5481565b6000806002600084815260200190815260200160002060009054906101000a900473ffffffffffffffffffffffffffffffffffffffff169050600073ffffffffffffffffffffffffffffffffffffffff168173ffffffffffffffffffffffffffffffffffffffff161415610c58576040517f08c379a0000000000000000000000000000000000000000000000000000000008152600401610c4f90612b74565b60405180910390fd5b80915050919050565b60075481565b60008073ffffffffffffffffffffffffffffffffffffffff168273ffffffffffffffffffffffffffffffffffffffff161415610cd8576040517f08c379a0000000000000000000000000000000000000000000000000000000008152600401610ccf90612ab4565b60405180910390fd5b600360008373ffffffffffffffffffffffffffffffffffffffff1673ffffffffffffffffffffffffffffffffffffffff168152602001908152602001600020549050919050565b610d276113aa565b610d316000611742565b565b600d60009054906101000a900473ffffffffffffffffffffffffffffffffffffffff1681565b6000600660009054906101000a900473ffffffffffffffffffffffffffffffffffffffff16905090565b610d8b6113aa565b8181600c9190610d9c929190611fe3565b505050565b606060018054610db090612ec5565b80601f0160208091040260200160405190810160405280929190818152602001828054610ddc90612ec5565b8015610e295780601f10610dfe57610100808354040283529160200191610e29565b820191906000526020600020905b815481529060010190602001808311610e0c57829003601f168201915b5050505050905090565b600b60009054906101000a900460ff16610e82576040517f08c379a0000000000000000000000000000000000000000000000000000000008152600401610e79906129d4565b60405180910390fd5b60075481610e909190612d6f565b3414610ed1576040517f08c379a0000000000000000000000000000000000000000000000000000000008152600401610ec890612994565b60405180910390fd5b60095481600854610ee29190612ce8565b1115610f23576040517f08c379a0000000000000000000000000000000000000000000000000000000008152600401610f1a90612a34565b60405180910390fd5b600a5481600e60003373ffffffffffffffffffffffffffffffffffffffff1673ffffffffffffffffffffffffffffffffffffffff16815260200190815260200160002054610f719190612ce8565b1115610fb2576040517f08c379a0000000000000000000000000000000000000000000000000000000008152600401610fa990612b34565b60405180910390fd5b60005b818110156110065760006001600854610fce9190612ce8565b905060086000815480929190610fe390612f28565b9190505550610ff23382611724565b508080610ffe90612f28565b915050610fb5565b5050565b61101c6110156112e9565b8383611808565b5050565b61103161102b6112e9565b83611428565b611070576040517f08c379a000000000000000000000000000000000000000000000000000000000815260040161106790612bb4565b60405180910390fd5b61107c84848484611975565b50505050565b606061108d826119d1565b6110cc576040517f08c379a00000000000000000000000000000000000000000000000000000000081526004016110c390612bd4565b60405180910390fd5b600c6110d783611a3d565b6040516020016110e8929190612891565b6040516020818303038152906040529050919050565b60095481565b6000600560008473ffffffffffffffffffffffffffffffffffffffff1673ffffffffffffffffffffffffffffffffffffffff16815260200190815260200160002060008373ffffffffffffffffffffffffffffffffffffffff1673ffffffffffffffffffffffffffffffffffffffff16815260200190815260200160002060009054906101000a900460ff16905092915050565b600e6020528060005260406000206000915090505481565b6111b86113aa565b600073ffffffffffffffffffffffffffffffffffffffff168173ffffffffffffffffffffffffffffffffffffffff161415611228576040517f08c379a000000000000000000000000000000000000000000000000000000000815260040161121f906129f4565b60405180910390fd5b61123181611742565b50565b60007f01ffc9a7000000000000000000000000000000000000000000000000000000007bffffffffffffffffffffffffffffffffffffffffffffffffffffffff1916827bffffffffffffffffffffffffffffffffffffffffffffffffffffffff1916149050919050565b6112a7816119d1565b6112e6576040517f08c379a00000000000000000000000000000000000000000000000000000000081526004016112dd90612b74565b60405180910390fd5b50565b600033905090565b816004600083815260200190815260200160002060006101000a81548173ffffffffffffffffffffffffffffffffffffffff021916908373ffffffffffffffffffffffffffffffffffffffff160217905550808273ffffffffffffffffffffffffffffffffffffffff1661136483610baf565b73ffffffffffffffffffffffffffffffffffffffff167f8c5be1e5ebec7d5bd14f71427d1e84f3dd0314c0f7b2291e5b200ac8c7c3b92560405160405180910390a45050565b6113b26112e9565b73ffffffffffffffffffffffffffffffffffffffff166113d0610d59565b73ffffffffffffffffffffffffffffffffffffffff1614611426576040517f08c379a000000000000000000000000000000000000000000000000000000000815260040161141d90612b54565b60405180910390fd5b565b60008061143483610baf565b90508073ffffffffffffffffffffffffffffffffffffffff168473ffffffffffffffffffffffffffffffffffffffff16148061147657506114758185611104565b5b806114b457508373ffffffffffffffffffffffffffffffffffffffff1661149c8461082c565b73ffffffffffffffffffffffffffffffffffffffff16145b91505092915050565b8273ffffffffffffffffffffffffffffffffffffffff166114dd82610baf565b73ffffffffffffffffffffffffffffffffffffffff1614611533576040517f08c379a000000000000000000000000000000000000000000000000000000000815260040161152a90612a14565b60405180910390fd5b600073ffffffffffffffffffffffffffffffffffffffff168273ffffffffffffffffffffffffffffffffffffffff1614156115a3576040517f08c379a000000000000000000000000000000000000000000000000000000000815260040161159a90612a74565b60405180910390fd5b6115ae838383611bea565b6115b96000826112f1565b6001600360008573ffffffffffffffffffffffffffffffffffffffff1673ffffffffffffffffffffffffffffffffffffffff16815260200190815260200160002060008282546116099190612dc9565b925050819055506001600360008473ffffffffffffffffffffffffffffffffffffffff1673ffffffffffffffffffffffffffffffffffffffff16815260200190815260200160002060008282546116609190612ce8565b92505081905550816002600083815260200190815260200160002060006101000a81548173ffffffffffffffffffffffffffffffffffffffff021916908373ffffffffffffffffffffffffffffffffffffffff160217905550808273ffffffffffffffffffffffffffffffffffffffff168473ffffffffffffffffffffffffffffffffffffffff167fddf252ad1be2c89b69c2b068fc378daa952ba7f163c4a11628f55a4df523b3ef60405160405180910390a461171f838383611bef565b505050565b61173e828260405180602001604052806000815250611bf4565b5050565b6000600660009054906101000a900473ffffffffffffffffffffffffffffffffffffffff16905081600660006101000a81548173ffffffffffffffffffffffffffffffffffffffff021916908373ffffffffffffffffffffffffffffffffffffffff1602179055508173ffffffffffffffffffffffffffffffffffffffff168173ffffffffffffffffffffffffffffffffffffffff167f8be0079c531659141344cd1fd0a4f28419497f9722a3daafe3b4186f6b6457e060405160405180910390a35050565b8173ffffffffffffffffffffffffffffffffffffffff168373ffffffffffffffffffffffffffffffffffffffff161415611877576040517f08c379a000000000000000000000000000000000000000000000000000000000815260040161186e90612a94565b60405180910390fd5b80600560008573ffffffffffffffffffffffffffffffffffffffff1673ffffffffffffffffffffffffffffffffffffffff16815260200190815260200160002060008473ffffffffffffffffffffffffffffffffffffffff1673ffffffffffffffffffffffffffffffffffffffff16815260200190815260200160002060006101000a81548160ff0219169083151502179055508173ffffffffffffffffffffffffffffffffffffffff168373ffffffffffffffffffffffffffffffffffffffff167f17307eab39ab6107e8899845ad3d59bd9653f200f220920489ca2b5937696c31836040516119689190612957565b60405180910390a3505050565b6119808484846114bd565b61198c84848484611c4f565b6119cb576040517f08c379a00000000000000000000000000000000000000000000000000000000081526004016119c2906129b4565b60405180910390fd5b50505050565b60008073ffffffffffffffffffffffffffffffffffffffff166002600084815260200190815260200160002060009054906101000a900473ffffffffffffffffffffffffffffffffffffffff1673ffffffffffffffffffffffffffffffffffffffff1614159050919050565b60606000821415611a85576040518060400160405280600181526020017f30000000000000000000000000000000000000000000000000000000000000008152509050611be5565b600082905060005b60008214611ab7578080611aa090612f28565b915050600a82611ab09190612d3e565b9150611a8d565b60008167ffffffffffffffff811115611af9577f4e487b7100000000000000000000000000000000000000000000000000000000600052604160045260246000fd5b6040519080825280601f01601f191660200182016040528015611b2b5781602001600182028036833780820191505090505b5090505b60008514611bde57600182611b449190612dc9565b9150600a85611b539190612f71565b6030611b5f9190612ce8565b60f81b818381518110611b9b577f4e487b7100000000000000000000000000000000000000000000000000000000600052603260045260246000fd5b60200101907effffffffffffffffffffffffffffffffffffffffffffffffffffffffffffff1916908160001a905350600a85611bd79190612d3e565b9450611b2f565b8093505050505b919050565b505050565b505050565b611bfe8383611de6565b611c0b6000848484611c4f565b611c4a576040517f08c379a0000000000000000000000000000000000000000000000000000000008152600401611c41906129b4565b60405180910390fd5b505050565b6000611c708473ffffffffffffffffffffffffffffffffffffffff16611fc0565b15611dd9578373ffffffffffffffffffffffffffffffffffffffff1663150b7a02611c996112e9565b8786866040518563ffffffff1660e01b8152600401611cbb949392919061290b565b602060405180830381600087803b158015611cd557600080fd5b505af1925050508015611d0657506040513d601f19601f82011682018060405250810190611d03919061239a565b60015b611d89573d8060008114611d36576040519150601f19603f3d011682016040523d82523d6000602084013e611d3b565b606091505b50600081511415611d81576040517f08c379a0000000000000000000000000000000000000000000000000000000008152600401611d78906129b4565b60405180910390fd5b805181602001fd5b63150b7a0260e01b7bffffffffffffffffffffffffffffffffffffffffffffffffffffffff1916817bffffffffffffffffffffffffffffffffffffffffffffffffffffffff191614915050611dde565b600190505b949350505050565b600073ffffffffffffffffffffffffffffffffffffffff168273ffffffffffffffffffffffffffffffffffffffff161415611e56576040517f08c379a0000000000000000000000000000000000000000000000000000000008152600401611e4d90612b14565b60405180910390fd5b611e5f816119d1565b15611e9f576040517f08c379a0000000000000000000000000000000000000000000000000000000008152600401611e9690612a54565b60405180910390fd5b611eab60008383611bea565b6001600360008473ffffffffffffffffffffffffffffffffffffffff1673ffffffffffffffffffffffffffffffffffffffff1681526020019081526020016000206000828254611efb9190612ce8565b92505081905550816002600083815260200190815260200160002060006101000a81548173ffffffffffffffffffffffffffffffffffffffff021916908373ffffffffffffffffffffffffffffffffffffffff160217905550808273ffffffffffffffffffffffffffffffffffffffff16600073ffffffffffffffffffffffffffffffffffffffff167fddf252ad1be2c89b69c2b068fc378daa952ba7f163c4a11628f55a4df523b3ef60405160405180910390a4611fbc60008383611bef565b5050565b6000808273ffffffffffffffffffffffffffffffffffffffff163b119050919050565b828054611fef90612ec5565b90600052602060002090601f0160209004810192826120115760008555612058565b82601f1061202a57803560ff1916838001178555612058565b82800160010185558215612058579182015b8281111561205757823582559160200191906001019061203c565b5b5090506120659190612069565b5090565b5b8082111561208257600081600090555060010161206a565b5090565b600061209961209484612c54565b612c2f565b9050828152602081018484840111156120b157600080fd5b6120bc848285612e83565b509392505050565b6000813590506120d3816134ff565b92915050565b6000813590506120e881613516565b92915050565b6000813590506120fd8161352d565b92915050565b6000815190506121128161352d565b92915050565b600082601f83011261212957600080fd5b8135612139848260208601612086565b91505092915050565b60008083601f84011261215457600080fd5b8235905067ffffffffffffffff81111561216d57600080fd5b60208301915083600182028301111561218557600080fd5b9250929050565b60008135905061219b81613544565b92915050565b6000602082840312156121b357600080fd5b60006121c1848285016120c4565b91505092915050565b600080604083850312156121dd57600080fd5b60006121eb858286016120c4565b92505060206121fc858286016120c4565b9150509250929050565b60008060006060848603121561221b57600080fd5b6000612229868287016120c4565b935050602061223a868287016120c4565b925050604061224b8682870161218c565b9150509250925092565b6000806000806080858703121561226b57600080fd5b6000612279878288016120c4565b945050602061228a878288016120c4565b935050604061229b8782880161218c565b925050606085013567ffffffffffffffff8111156122b857600080fd5b6122c487828801612118565b91505092959194509250565b600080604083850312156122e357600080fd5b60006122f1858286016120c4565b9250506020612302858286016120d9565b9150509250929050565b6000806040838503121561231f57600080fd5b600061232d858286016120c4565b925050602061233e8582860161218c565b9150509250929050565b60006020828403121561235a57600080fd5b6000612368848285016120d9565b91505092915050565b60006020828403121561238357600080fd5b6000612391848285016120ee565b91505092915050565b6000602082840312156123ac57600080fd5b60006123ba84828501612103565b91505092915050565b600080602083850312156123d657600080fd5b600083013567ffffffffffffffff8111156123f057600080fd5b6123fc85828601612142565b92509250509250929050565b60006020828403121561241a57600080fd5b60006124288482850161218c565b91505092915050565b61243a81612e0f565b82525050565b61244981612dfd565b82525050565b61245881612e21565b82525050565b600061246982612c9a565b6124738185612cb0565b9350612483818560208601612e92565b61248c8161305e565b840191505092915050565b60006124a282612ca5565b6124ac8185612ccc565b93506124bc818560208601612e92565b6124c58161305e565b840191505092915050565b60006124db82612ca5565b6124e58185612cdd565b93506124f5818560208601612e92565b80840191505092915050565b6000815461250e81612ec5565b6125188186612cdd565b94506001821660008114612533576001811461254457612577565b60ff19831686528186019350612577565b61254d85612c85565b60005b8381101561256f57815481890152600182019150602081019050612550565b838801955050505b50505092915050565b600061258d601083612ccc565b91506125988261306f565b602082019050919050565b60006125b0603283612ccc565b91506125bb82613098565b604082019050919050565b60006125d3601383612ccc565b91506125de826130e7565b602082019050919050565b60006125f6602683612ccc565b915061260182613110565b604082019050919050565b6000612619602583612ccc565b91506126248261315f565b604082019050919050565b600061263c600983612ccc565b9150612647826131ae565b602082019050919050565b600061265f601c83612ccc565b915061266a826131d7565b602082019050919050565b6000612682600683612cdd565b915061268d82613200565b600682019050919050565b60006126a5602483612ccc565b91506126b082613229565b604082019050919050565b60006126c8601983612ccc565b91506126d382613278565b602082019050919050565b60006126eb602983612ccc565b91506126f6826132a1565b604082019050919050565b600061270e600c83612ccc565b9150612719826132f0565b602082019050919050565b6000612731603e83612ccc565b915061273c82613319565b604082019050919050565b6000612754602083612ccc565b915061275f82613368565b602082019050919050565b6000612777601183612ccc565b915061278282613391565b602082019050919050565b600061279a602083612ccc565b91506127a5826133ba565b602082019050919050565b60006127bd601883612ccc565b91506127c8826133e3565b602082019050919050565b60006127e0602183612ccc565b91506127eb8261340c565b604082019050919050565b6000612803600083612cc1565b915061280e8261345b565b600082019050919050565b6000612826602e83612ccc565b91506128318261345e565b604082019050919050565b6000612849601583612ccc565b9150612854826134ad565b602082019050919050565b600061286c600f83612ccc565b9150612877826134d6565b602082019050919050565b61288b81612e79565b82525050565b600061289d8285612501565b91506128a982846124d0565b91506128b482612675565b91508190509392505050565b60006128cb826127f6565b9150819050919050565b60006020820190506128ea6000830184612440565b92915050565b60006020820190506129056000830184612431565b92915050565b60006080820190506129206000830187612440565b61292d6020830186612440565b61293a6040830185612882565b818103606083015261294c818461245e565b905095945050505050565b600060208201905061296c600083018461244f565b92915050565b6000602082019050818103600083015261298c8184612497565b905092915050565b600060208201905081810360008301526129ad81612580565b9050919050565b600060208201905081810360008301526129cd816125a3565b9050919050565b600060208201905081810360008301526129ed816125c6565b9050919050565b60006020820190508181036000830152612a0d816125e9565b9050919050565b60006020820190508181036000830152612a2d8161260c565b9050919050565b60006020820190508181036000830152612a4d8161262f565b9050919050565b60006020820190508181036000830152612a6d81612652565b9050919050565b60006020820190508181036000830152612a8d81612698565b9050919050565b60006020820190508181036000830152612aad816126bb565b9050919050565b60006020820190508181036000830152612acd816126de565b9050919050565b60006020820190508181036000830152612aed81612701565b9050919050565b60006020820190508181036000830152612b0d81612724565b9050919050565b60006020820190508181036000830152612b2d81612747565b9050919050565b60006020820190508181036000830152612b4d8161276a565b9050919050565b60006020820190508181036000830152612b6d8161278d565b9050919050565b60006020820190508181036000830152612b8d816127b0565b9050919050565b60006020820190508181036000830152612bad816127d3565b9050919050565b60006020820190508181036000830152612bcd81612819565b9050919050565b60006020820190508181036000830152612bed8161283c565b9050919050565b60006020820190508181036000830152612c0d8161285f565b9050919050565b6000602082019050612c296000830184612882565b92915050565b6000612c39612c4a565b9050612c458282612ef7565b919050565b6000604051905090565b600067ffffffffffffffff821115612c6f57612c6e61302f565b5b612c788261305e565b9050602081019050919050565b60008190508160005260206000209050919050565b600081519050919050565b600081519050919050565b600082825260208201905092915050565b600081905092915050565b600082825260208201905092915050565b600081905092915050565b6000612cf382612e79565b9150612cfe83612e79565b9250827fffffffffffffffffffffffffffffffffffffffffffffffffffffffffffffffff03821115612d3357612d32612fa2565b5b828201905092915050565b6000612d4982612e79565b9150612d5483612e79565b925082612d6457612d63612fd1565b5b828204905092915050565b6000612d7a82612e79565b9150612d8583612e79565b9250817fffffffffffffffffffffffffffffffffffffffffffffffffffffffffffffffff0483118215151615612dbe57612dbd612fa2565b5b828202905092915050565b6000612dd482612e79565b9150612ddf83612e79565b925082821015612df257612df1612fa2565b5b828203905092915050565b6000612e0882612e59565b9050919050565b6000612e1a82612e59565b9050919050565b60008115159050919050565b60007fffffffff0000000000000000000000000000000000000000000000000000000082169050919050565b600073ffffffffffffffffffffffffffffffffffffffff82169050919050565b6000819050919050565b82818337600083830152505050565b60005b83811015612eb0578082015181840152602081019050612e95565b83811115612ebf576000848401525b50505050565b60006002820490506001821680612edd57607f821691505b60208210811415612ef157612ef0613000565b5b50919050565b612f008261305e565b810181811067ffffffffffffffff82111715612f1f57612f1e61302f565b5b80604052505050565b6000612f3382612e79565b91507fffffffffffffffffffffffffffffffffffffffffffffffffffffffffffffffff821415612f6657612f65612fa2565b5b600182019050919050565b6000612f7c82612e79565b9150612f8783612e79565b925082612f9757612f96612fd1565b5b828206905092915050565b7f4e487b7100000000000000000000000000000000000000000000000000000000600052601160045260246000fd5b7f4e487b7100000000000000000000000000000000000000000000000000000000600052601260045260246000fd5b7f4e487b7100000000000000000000000000000000000000000000000000000000600052602260045260246000fd5b7f4e487b7100000000000000000000000000000000000000000000000000000000600052604160045260246000fd5b6000601f19601f8301169050919050565b7f77726f6e67206d696e742076616c756500000000000000000000000000000000600082015250565b7f4552433732313a207472616e7366657220746f206e6f6e20455243373231526560008201527f63656976657220696d706c656d656e7465720000000000000000000000000000602082015250565b7f6d696e74696e67206e6f7420656e61626c656400000000000000000000000000600082015250565b7f4f776e61626c653a206e6577206f776e657220697320746865207a65726f206160008201527f6464726573730000000000000000000000000000000000000000000000000000602082015250565b7f4552433732313a207472616e736665722066726f6d20696e636f72726563742060008201527f6f776e6572000000000000000000000000000000000000000000000000000000602082015250565b7f536f6c64204f7574210000000000000000000000000000000000000000000000600082015250565b7f4552433732313a20746f6b656e20616c7265616479206d696e74656400000000600082015250565b7f2e6a61736f6e0000000000000000000000000000000000000000000000000000600082015250565b7f4552433732313a207472616e7366657220746f20746865207a65726f2061646460008201527f7265737300000000000000000000000000000000000000000000000000000000602082015250565b7f4552433732313a20617070726f766520746f2063616c6c657200000000000000600082015250565b7f4552433732313a2061646472657373207a65726f206973206e6f74206120766160008201527f6c6964206f776e65720000000000000000000000000000000000000000000000602082015250565b7f7a65726f20726571756573740000000000000000000000000000000000000000600082015250565b7f4552433732313a20617070726f76652063616c6c6572206973206e6f7420746f60008201527f6b656e206f776e6572206e6f7220617070726f76656420666f7220616c6c0000602082015250565b7f4552433732313a206d696e7420746f20746865207a65726f2061646472657373600082015250565b7f657863656564206d61782077616c6c6574000000000000000000000000000000600082015250565b7f4f776e61626c653a2063616c6c6572206973206e6f7420746865206f776e6572600082015250565b7f4552433732313a20696e76616c696420746f6b656e2049440000000000000000600082015250565b7f4552433732313a20617070726f76616c20746f2063757272656e74206f776e6560008201527f7200000000000000000000000000000000000000000000000000000000000000602082015250565b50565b7f4552433732313a2063616c6c6572206973206e6f7420746f6b656e206f776e6560008201527f72206e6f7220617070726f766564000000000000000000000000000000000000602082015250565b7f546f6b656e20646f6573206e6f74206578697374210000000000000000000000600082015250565b7f7769746864726177206661696c65640000000000000000000000000000000000600082015250565b61350881612dfd565b811461351357600080fd5b50565b61351f81612e21565b811461352a57600080fd5b50565b61353681612e2d565b811461354157600080fd5b50565b61354d81612e79565b811461355857600080fd5b5056fea264697066735822122028601a68df634a540f53d95b774ee9c7230477432ab8ac09cae5832b9e62c72064736f6c63430008040033",
    "linkReferences": {},
    "deployedLinkReferences": {}
}